{
  "contractName": "MedicalRecords",
  "abi": [
    {
      "inputs": [
        {
          "internalType": "address",
          "name": "",
          "type": "address"
        },
        {
          "internalType": "uint256",
          "name": "",
          "type": "uint256"
        }
      ],
      "name": "AccesDoctor",
      "outputs": [
        {
          "internalType": "address",
          "name": "",
          "type": "address"
        }
      ],
      "stateMutability": "view",
      "type": "function",
      "constant": true
    },
    {
      "inputs": [
        {
          "internalType": "address",
          "name": "",
          "type": "address"
        },
        {
          "internalType": "uint256",
          "name": "",
          "type": "uint256"
        }
      ],
      "name": "AccesHospital",
      "outputs": [
        {
          "internalType": "address",
          "name": "",
          "type": "address"
        }
      ],
      "stateMutability": "view",
      "type": "function",
      "constant": true
    },
    {
      "inputs": [
        {
          "internalType": "address",
          "name": "",
          "type": "address"
        },
        {
          "internalType": "uint256",
          "name": "",
          "type": "uint256"
        }
      ],
      "name": "DoctorAccount",
      "outputs": [
        {
          "internalType": "address",
          "name": "",
          "type": "address"
        }
      ],
      "stateMutability": "view",
      "type": "function",
      "constant": true
    },
    {
      "inputs": [
        {
          "internalType": "uint256",
          "name": "",
          "type": "uint256"
        }
      ],
      "name": "DoctorsAddress",
      "outputs": [
        {
          "internalType": "address",
          "name": "",
          "type": "address"
        }
      ],
      "stateMutability": "view",
      "type": "function",
      "constant": true
    },
    {
      "inputs": [
        {
          "internalType": "address",
          "name": "",
          "type": "address"
        },
        {
          "internalType": "uint256",
          "name": "",
          "type": "uint256"
        }
      ],
      "name": "Ehr",
      "outputs": [
        {
          "internalType": "string",
          "name": "",
          "type": "string"
        }
      ],
      "stateMutability": "view",
      "type": "function",
      "constant": true
    },
    {
      "inputs": [
        {
          "internalType": "uint256",
          "name": "",
          "type": "uint256"
        }
      ],
      "name": "HospitalAccount",
      "outputs": [
        {
          "internalType": "address",
          "name": "",
          "type": "address"
        }
      ],
      "stateMutability": "view",
      "type": "function",
      "constant": true
    },
    {
      "inputs": [
        {
          "internalType": "address",
          "name": "",
          "type": "address"
        },
        {
          "internalType": "uint256",
          "name": "",
          "type": "uint256"
        }
      ],
      "name": "PersonalInfos",
      "outputs": [
        {
          "internalType": "string",
          "name": "",
          "type": "string"
        }
      ],
      "stateMutability": "view",
      "type": "function",
      "constant": true
    },
    {
      "inputs": [],
      "name": "admin",
      "outputs": [
        {
          "internalType": "address",
          "name": "",
          "type": "address"
        }
      ],
      "stateMutability": "view",
      "type": "function",
      "constant": true
    },
    {
      "inputs": [],
      "name": "isDoctor",
      "outputs": [
        {
          "internalType": "bool",
          "name": "",
          "type": "bool"
        }
      ],
      "stateMutability": "view",
      "type": "function",
      "constant": true
    },
    {
      "inputs": [],
      "name": "isHospital",
      "outputs": [
        {
          "internalType": "bool",
          "name": "",
          "type": "bool"
        }
      ],
      "stateMutability": "view",
      "type": "function",
      "constant": true
    },
    {
      "inputs": [],
      "name": "isAdmin",
      "outputs": [
        {
          "internalType": "bool",
          "name": "",
          "type": "bool"
        }
      ],
      "stateMutability": "view",
      "type": "function",
      "constant": true
    },
    {
      "inputs": [
        {
          "internalType": "address",
          "name": "_user",
          "type": "address"
        }
      ],
      "name": "addHospitalAccount",
      "outputs": [],
      "stateMutability": "nonpayable",
      "type": "function"
    },
    {
      "inputs": [],
      "name": "displayHospitalAccountLength",
      "outputs": [
        {
          "internalType": "uint256",
          "name": "",
          "type": "uint256"
        }
      ],
      "stateMutability": "view",
      "type": "function",
      "constant": true
    },
    {
      "inputs": [
        {
          "internalType": "uint256",
          "name": "_id",
          "type": "uint256"
        }
      ],
      "name": "displayHospitalAccount",
      "outputs": [
        {
          "internalType": "address",
          "name": "",
          "type": "address"
        }
      ],
      "stateMutability": "view",
      "type": "function",
      "constant": true
    },
    {
      "inputs": [
        {
          "internalType": "address",
          "name": "_user",
          "type": "address"
        }
      ],
      "name": "addDoctorAccount",
      "outputs": [],
      "stateMutability": "nonpayable",
      "type": "function"
    },
    {
      "inputs": [],
      "name": "displayDoctorAccountLength",
      "outputs": [
        {
          "internalType": "uint256",
          "name": "",
          "type": "uint256"
        }
      ],
      "stateMutability": "view",
      "type": "function",
      "constant": true
    },
    {
      "inputs": [
        {
          "internalType": "uint256",
          "name": "_id",
          "type": "uint256"
        }
      ],
      "name": "displayDoctorAccount",
      "outputs": [
        {
          "internalType": "address",
          "name": "",
          "type": "address"
        }
      ],
      "stateMutability": "view",
      "type": "function",
      "constant": true
    },
    {
      "inputs": [
        {
          "internalType": "address",
          "name": "_patient",
          "type": "address"
        },
        {
          "internalType": "string",
          "name": "_data",
          "type": "string"
        }
      ],
      "name": "createEhr",
      "outputs": [],
      "stateMutability": "nonpayable",
      "type": "function"
    },
    {
      "inputs": [
        {
          "internalType": "string",
          "name": "_a",
          "type": "string"
        },
        {
          "internalType": "string",
          "name": "_b",
          "type": "string"
        }
      ],
      "name": "concatenateStrings",
      "outputs": [
        {
          "internalType": "string",
          "name": "",
          "type": "string"
        }
      ],
      "stateMutability": "pure",
      "type": "function",
      "constant": true
    },
    {
      "inputs": [
        {
          "internalType": "address",
          "name": "_patient",
          "type": "address"
        },
        {
          "internalType": "uint256",
          "name": "_id",
          "type": "uint256"
        },
        {
          "internalType": "string",
          "name": "_data",
          "type": "string"
        }
      ],
      "name": "ModifyEhr",
      "outputs": [],
      "stateMutability": "nonpayable",
      "type": "function"
    },
    {
      "inputs": [
        {
          "internalType": "address",
          "name": "_patient",
          "type": "address"
        }
      ],
      "name": "displayMedicalRecordsLength",
      "outputs": [
        {
          "internalType": "uint256",
          "name": "",
          "type": "uint256"
        }
      ],
      "stateMutability": "view",
      "type": "function",
      "constant": true
    },
    {
      "inputs": [
        {
          "internalType": "address",
          "name": "_patient",
          "type": "address"
        },
        {
          "internalType": "uint256",
          "name": "_id",
          "type": "uint256"
        }
      ],
      "name": "displayMedicalRecords",
      "outputs": [
        {
          "internalType": "string",
          "name": "",
          "type": "string"
        }
      ],
      "stateMutability": "view",
      "type": "function",
      "constant": true
    },
    {
      "inputs": [
        {
          "internalType": "address",
          "name": "_doctor",
          "type": "address"
        }
      ],
      "name": "accessDoctor",
      "outputs": [],
      "stateMutability": "nonpayable",
      "type": "function"
    },
    {
      "inputs": [],
      "name": "displayaccessDoctorLength",
      "outputs": [
        {
          "internalType": "uint256",
          "name": "",
          "type": "uint256"
        }
      ],
      "stateMutability": "view",
      "type": "function",
      "constant": true
    },
    {
      "inputs": [
        {
          "internalType": "address",
          "name": "_patient",
          "type": "address"
        }
      ],
      "name": "displayaccessDoctorLengthPatient",
      "outputs": [
        {
          "internalType": "uint256",
          "name": "",
          "type": "uint256"
        }
      ],
      "stateMutability": "view",
      "type": "function",
      "constant": true
    },
    {
      "inputs": [
        {
          "internalType": "address",
          "name": "_patient",
          "type": "address"
        },
        {
          "internalType": "uint256",
          "name": "_index",
          "type": "uint256"
        }
      ],
      "name": "getAccesDoctorAtIndex",
      "outputs": [
        {
          "internalType": "address",
          "name": "",
          "type": "address"
        }
      ],
      "stateMutability": "view",
      "type": "function",
      "constant": true
    },
    {
      "inputs": [
        {
          "internalType": "address",
          "name": "_hospital",
          "type": "address"
        }
      ],
      "name": "accessHospital",
      "outputs": [],
      "stateMutability": "nonpayable",
      "type": "function"
    },
    {
      "inputs": [],
      "name": "displayaccessHospitalLength",
      "outputs": [
        {
          "internalType": "uint256",
          "name": "",
          "type": "uint256"
        }
      ],
      "stateMutability": "view",
      "type": "function",
      "constant": true
    },
    {
      "inputs": [
        {
          "internalType": "address",
          "name": "_patient",
          "type": "address"
        },
        {
          "internalType": "uint256",
          "name": "_index",
          "type": "uint256"
        }
      ],
      "name": "getAccesHospitalAtIndex",
      "outputs": [
        {
          "internalType": "address",
          "name": "",
          "type": "address"
        }
      ],
      "stateMutability": "view",
      "type": "function",
      "constant": true
    },
    {
      "inputs": [
        {
          "internalType": "string",
          "name": "_data",
          "type": "string"
        }
      ],
      "name": "addPersonalInfos",
      "outputs": [],
      "stateMutability": "nonpayable",
      "type": "function"
    },
    {
      "inputs": [],
      "name": "displayPersonalInfos",
      "outputs": [
        {
          "internalType": "string",
          "name": "",
          "type": "string"
        }
      ],
      "stateMutability": "view",
      "type": "function",
      "constant": true
    },
    {
      "inputs": [
        {
          "internalType": "address",
          "name": "_user",
          "type": "address"
        }
      ],
      "name": "displayPersonalInfosLength",
      "outputs": [
        {
          "internalType": "uint256",
          "name": "",
          "type": "uint256"
        }
      ],
      "stateMutability": "view",
      "type": "function",
      "constant": true
    }
  ],
  "bytecode": "0x608060405234801561001057600080fd5b50611acc806100206000396000f3fe608060405234801561001057600080fd5b50600436106101f05760003560e01c80638b01c2bf1161010f578063b6db75a0116100a2578063d3dbdf1211610071578063d3dbdf12146103fb578063dcd586ce14610403578063e3b78c7e14610416578063f851a44014610429576101f0565b8063b6db75a0146103c5578063b986b608146103cd578063c4eac2e2146103d5578063cc95bac9146103e8576101f0565b8063a6872fbc116100de578063a6872fbc14610384578063a74b500c14610397578063a8b348fa146103aa578063af691f45146103bd576101f0565b80638b01c2bf14610343578063905a2e7e146103565780639c884e1514610369578063a2c3dbab1461037c576101f0565b8063498ac065116101875780636cbfcfb5116101565780636cbfcfb5146102f7578063742538101461030a5780637a36b3ee1461031d5780637b5211b814610330576101f0565b8063498ac0651461029e578063517de84e146102b15780635512fe7e146102c45780636a9b2e59146102d7576101f0565b806336311c33116101c357806336311c331461025b5780633e1563041461027057806347aa25751461028357806348af8e0a14610296576101f0565b806301b34840146101f55780632499aa791461020a5780632a3adb451461023357806335c5810814610248575b600080fd5b610208610203366004611622565b610431565b005b61021d61021836600461179f565b6104fc565b60405161022a91906117b7565b60405180910390f35b61023b610526565b60405161022a91906119c5565b610208610256366004611622565b61052c565b61026361064e565b60405161022a91906117cb565b61020861027e36600461170d565b6106c0565b610208610291366004611643565b6106f1565b61023b6108df565b61023b6102ac366004611622565b6108f2565b61021d6102bf36600461168f565b610911565b61021d6102d236600461168f565b610949565b6102ea6102e536600461168f565b610965565b60405161022a91906117d6565b61023b610305366004611622565b610a72565b61023b610318366004611622565b610a8d565b6102ea61032b366004611748565b610aa8565b6102ea61033e36600461168f565b610c41565b61021d61035136600461168f565b610cfa565b61021d61036436600461168f565b610d16565b6102ea61037736600461168f565b610da1565b61023b610dbd565b610208610392366004611622565b610dd0565b61021d6103a536600461179f565b610e9c565b61021d6103b836600461179f565b610efc565b61023b610f59565b610263610f6c565b610263610f94565b6102086103e3366004611622565b611000565b61021d6103f636600461179f565b6111b4565b6102ea6111c4565b6102086104113660046116b8565b6112c6565b61021d61042436600461168f565b61146a565b61021d6114d9565b6000805b336000908152600660205260409020548110156104b95733600090815260056020526040902080546001600160a01b03851691908390811061048757634e487b7160e01b600052603260045260246000fd5b6000918252602090912001546001600160a01b031614156104a757600191505b806104b181611a4f565b915050610435565b50806104f8573360009081526006602090815260408220805460018101825590835291200180546001600160a01b0319166001600160a01b0384161790555b5050565b6001818154811061050c57600080fd5b6000918252602090912001546001600160a01b0316905081565b60015490565b73fe3b557e8fb62b89f4916b721be55ceb828dbd7333146105685760405162461bcd60e51b815260040161055f90611858565b60405180910390fd5b60015460005b81156105dd576001600160a01b038316600161058a81856119e6565b815481106105a857634e487b7160e01b600052603260045260246000fd5b6000918252602090912001546001600160a01b031614156105cb575060016105dd565b816105d5816119fd565b92505061056e565b80156105fb5760405162461bcd60e51b815260040161055f90611829565b50506001805480820182556000919091527fb10e2d527612073b26eecdfd717e6a320cf44b4afac2b0732d9fcbe2b7fa0cf60180546001600160a01b0319166001600160a01b0392909216919091179055565b600080805b6001548110156106ba57336001600160a01b03166001828154811061068857634e487b7160e01b600052603260045260246000fd5b6000918252602090912001546001600160a01b031614156106a857600191505b806106b281611a4f565b915050610653565b50905090565b33600090815260208181526040822080546001810182559083529181902083516104f89391909101918401906114f1565b6000805b6001600160a01b038416600090815260056020526040902054811015610782576001600160a01b038416600090815260056020526040902080543391908390811061075057634e487b7160e01b600052603260045260246000fd5b6000918252602090912001546001600160a01b0316141561077057600191505b8061077a81611a4f565b9150506106f5565b5060005b6001600160a01b038416600090815260066020526040902054811015610813576001600160a01b03841660009081526006602052604090208054339190839081106107e157634e487b7160e01b600052603260045260246000fd5b6000918252602090912001546001600160a01b0316141561080157600191505b8061080b81611a4f565b915050610786565b506001811515146108365760405162461bcd60e51b815260040161055f9061191b565b60005b6003548110156108d957336001600160a01b03166003828154811061086e57634e487b7160e01b600052603260045260246000fd5b6000918252602090912001546001600160a01b031614156108c7576001600160a01b0384166000908152600460209081526040822080546001810182559083529181902085516108c59391909101918601906114f1565b505b806108d181611a4f565b915050610839565b50505050565b3360009081526005602052604090205490565b6001600160a01b0381166000908152602081905260409020545b919050565b6006602052816000526040600020818154811061092d57600080fd5b6000918252602090912001546001600160a01b03169150829050565b6002602052816000526040600020818154811061092d57600080fd5b6001600160a01b038216600090815260046020526040902054606090821061099f5760405162461bcd60e51b815260040161055f90611998565b6001600160a01b03831660009081526004602052604090208054839081106109d757634e487b7160e01b600052603260045260246000fd5b9060005260206000200180546109ec90611a14565b80601f0160208091040260200160405190810160405280929190818152602001828054610a1890611a14565b8015610a655780601f10610a3a57610100808354040283529160200191610a65565b820191906000526020600020905b815481529060010190602001808311610a4857829003601f168201915b5050505050905092915050565b6001600160a01b031660009081526004602052604090205490565b6001600160a01b031660009081526005602052604090205490565b8051825160609184918491600091610ac091906119ce565b67ffffffffffffffff811115610ae657634e487b7160e01b600052604160045260246000fd5b6040519080825280601f01601f191660200182016040528015610b10576020820181803683370190505b509050806000805b8551811015610ba457858181518110610b4157634e487b7160e01b600052603260045260246000fd5b01602001516001600160f81b0319168383610b5b81611a4f565b945081518110610b7b57634e487b7160e01b600052603260045260246000fd5b60200101906001600160f81b031916908160001a90535080610b9c81611a4f565b915050610b18565b5060005b8451811015610c3457848181518110610bd157634e487b7160e01b600052603260045260246000fd5b01602001516001600160f81b0319168383610beb81611a4f565b945081518110610c0b57634e487b7160e01b600052603260045260246000fd5b60200101906001600160f81b031916908160001a90535080610c2c81611a4f565b915050610ba8565b5090979650505050505050565b60046020528160005260406000208181548110610c5d57600080fd5b90600052602060002001600091509150508054610c7990611a14565b80601f0160208091040260200160405190810160405280929190818152602001828054610ca590611a14565b8015610cf25780601f10610cc757610100808354040283529160200191610cf2565b820191906000526020600020905b815481529060010190602001808311610cd557829003601f168201915b505050505081565b6005602052816000526040600020818154811061092d57600080fd5b6001600160a01b0382166000908152600560205260408120548210610d4d5760405162461bcd60e51b815260040161055f90611998565b6001600160a01b0383166000908152600560205260409020805483908110610d8557634e487b7160e01b600052603260045260246000fd5b6000918252602090912001546001600160a01b03169392505050565b60006020528160005260406000208181548110610c5d57600080fd5b3360009081526002602052604090205490565b6000805b33600090815260056020526040902054811015610e585733600090815260056020526040902080546001600160a01b038516919083908110610e2657634e487b7160e01b600052603260045260246000fd5b6000918252602090912001546001600160a01b03161415610e4657600191505b80610e5081611a4f565b915050610dd4565b50806104f8573360009081526005602090815260408220805460018101825590835291200180546001600160a01b0384166001600160a01b03199091161790555050565b6001546000908210610ec05760405162461bcd60e51b815260040161055f90611998565b60018281548110610ee157634e487b7160e01b600052603260045260246000fd5b6000918252602090912001546001600160a01b031692915050565b336000908152600260205260408120548210610f2a5760405162461bcd60e51b815260040161055f90611998565b336000908152600260205260409020805483908110610ee157634e487b7160e01b600052603260045260246000fd5b3360009081526006602052604090205490565b60008073fe3b557e8fb62b89f4916b721be55ceb828dbd73331415610f8f575060015b905090565b600080805b6003548110156106ba57336001600160a01b031660038281548110610fce57634e487b7160e01b600052603260045260246000fd5b6000918252602090912001546001600160a01b03161415610fee57600191505b80610ff881611a4f565b915050610f99565b6000805b60015481101561106f57336001600160a01b03166001828154811061103957634e487b7160e01b600052603260045260246000fd5b6000918252602090912001546001600160a01b0316141561105d576001915061106f565b8061106781611a4f565b915050611004565b508061108d5760405162461bcd60e51b815260040161055f906118be565b6000805b336000908152600260205260409020548110156111195733600090815260026020526040902080546001600160a01b0386169190839081106110e357634e487b7160e01b600052603260045260246000fd5b6000918252602090912001546001600160a01b031614156111075760019150611119565b8061111181611a4f565b915050611091565b5080156111385760405162461bcd60e51b815260040161055f90611948565b5050336000908152600260209081526040822080546001818101835591845291832090910180546001600160a01b03949094166001600160a01b031994851681179091556003805492830181559092527fc2575a0e9e593c00f959f8c92f12db2869c3395a3b0502d05e2516446f71f85b018054909216179055565b6003818154811061050c57600080fd5b336000908152602081905260409020546060906111f35760405162461bcd60e51b815260040161055f90611887565b3360009081526020819052604090208054611210906001906119e6565b8154811061122e57634e487b7160e01b600052603260045260246000fd5b90600052602060002001805461124390611a14565b80601f016020809104026020016040519081016040528092919081815260200182805461126f90611a14565b80156112bc5780601f10611291576101008083540402835291602001916112bc565b820191906000526020600020905b81548152906001019060200180831161129f57829003601f168201915b5050505050905090565b6000805b6001600160a01b038516600090815260056020526040902054811015611357576001600160a01b038516600090815260056020526040902080543391908390811061132557634e487b7160e01b600052603260045260246000fd5b6000918252602090912001546001600160a01b0316141561134557600191505b8061134f81611a4f565b9150506112ca565b5060005b6001600160a01b0385166000908152600660205260409020548110156113e8576001600160a01b03851660009081526006602052604090208054339190839081106113b657634e487b7160e01b600052603260045260246000fd5b6000918252602090912001546001600160a01b031614156113d657600191505b806113e081611a4f565b91505061135b565b5060018115151461140b5760405162461bcd60e51b815260040161055f9061191b565b6001600160a01b038416600090815260046020526040902080548391908590811061144657634e487b7160e01b600052603260045260246000fd5b9060005260206000200190805190602001906114639291906114f1565b5050505050565b6001600160a01b03821660009081526006602052604081205482106114a15760405162461bcd60e51b815260040161055f90611998565b6001600160a01b0383166000908152600660205260409020805483908110610d8557634e487b7160e01b600052603260045260246000fd5b73fe3b557e8fb62b89f4916b721be55ceb828dbd7381565b8280546114fd90611a14565b90600052602060002090601f01602090048101928261151f5760008555611565565b82601f1061153857805160ff1916838001178555611565565b82800160010185558215611565579182015b8281111561156557825182559160200191906001019061154a565b50611571929150611575565b5090565b5b808211156115715760008155600101611576565b80356001600160a01b038116811461090c57600080fd5b600082601f8301126115b1578081fd5b813567ffffffffffffffff808211156115cc576115cc611a80565b604051601f8301601f1916810160200182811182821017156115f0576115f0611a80565b604052828152848301602001861015611607578384fd5b82602086016020830137918201602001929092529392505050565b600060208284031215611633578081fd5b61163c8261158a565b9392505050565b60008060408385031215611655578081fd5b61165e8361158a565b9150602083013567ffffffffffffffff811115611679578182fd5b611685858286016115a1565b9150509250929050565b600080604083850312156116a1578182fd5b6116aa8361158a565b946020939093013593505050565b6000806000606084860312156116cc578081fd5b6116d58461158a565b925060208401359150604084013567ffffffffffffffff8111156116f7578182fd5b611703868287016115a1565b9150509250925092565b60006020828403121561171e578081fd5b813567ffffffffffffffff811115611734578182fd5b611740848285016115a1565b949350505050565b6000806040838503121561175a578182fd5b823567ffffffffffffffff80821115611771578384fd5b61177d868387016115a1565b93506020850135915080821115611792578283fd5b50611685858286016115a1565b6000602082840312156117b0578081fd5b5035919050565b6001600160a01b0391909116815260200190565b901515815260200190565b6000602080835283518082850152825b81811015611802578581018301518582016040015282016117e6565b818111156118135783604083870101525b50601f01601f1916929092016040019392505050565b602080825260159082015274151a1a5cc81058d8dbdd5b9d081a5cc81059191959605a1b604082015260600190565b602080825260159082015274596f7520646f6e277420686176652061636365737360581b604082015260600190565b6020808252601d908201527f4e6f20706572736f6e616c20696e666f726d6174696f6e20666f756e64000000604082015260600190565b60208082526038908201527f596f7520646f6e74206861766520416363657373204265636175736520486f7360408201527f706974616c204163636f756e7420446f6e742045786973740000000000000000606082015260800190565b602080825260139082015272796f7520646f6e74206861766520616363657360681b604082015260600190565b60208082526030908201527f596f7520646f6e7420686176652041636365737320746f2061646420446f637460408201526f1bdc88109958d85d5cd948195e1a5cdd60821b606082015260800190565b602080825260139082015272496e646578206f7574206f6620626f756e647360681b604082015260600190565b90815260200190565b600082198211156119e1576119e1611a6a565b500190565b6000828210156119f8576119f8611a6a565b500390565b600081611a0c57611a0c611a6a565b506000190190565b600281046001821680611a2857607f821691505b60208210811415611a4957634e487b7160e01b600052602260045260246000fd5b50919050565b6000600019821415611a6357611a63611a6a565b5060010190565b634e487b7160e01b600052601160045260246000fd5b634e487b7160e01b600052604160045260246000fdfea26469706673582212201677caa8bbb350c015f029241a0969cd716d2a4a2cc06c83163f9b1f8b7dcb3964736f6c63430008000033",
  "immutableReferences": {},
  "source": "// SPDX-License-Identifier: GPL-3.0\n\npragma solidity >=0.7.0 <0.9.0;\n\ncontract MedicalRecords {\n    address public constant admin = 0xFE3B557E8Fb62b89F4916B721be55cEb828dBd73;\n\n    mapping(address => string[]) public PersonalInfos;\n\n    address[] public HospitalAccount;\n    mapping(address => address[]) public DoctorAccount;\n    address[] public DoctorsAddress;\n\n    mapping(address => string[]) public Ehr; //address [patient];\n\n    mapping(address => address[]) public AccesDoctor; //AccesDoctor[patient]=[doctor]\n    mapping(address => address[]) public AccesHospital; //AccesDoctor[patient]=[hospital]\n    struct EHR {\n        address doctor;\n        address hospitaAccount;\n        uint256 id;\n        string data;\n    }\n\n    function isDoctor() external view returns (bool) {\n        bool access = false;\n        for (uint256 i = 0; i < DoctorsAddress.length; i++) {\n            if (DoctorsAddress[i] == msg.sender) {\n                access = true;\n            }\n        }\n\n        return access;\n    }\n\n    function isHospital() external view returns (bool) {\n        bool access = false;\n        for (uint256 i = 0; i < HospitalAccount.length; i++) {\n            if (HospitalAccount[i] == msg.sender) {\n                access = true;\n            }\n        }\n\n        return access;\n    }\n\n    function isAdmin() external view returns (bool) {\n        bool access = false;\n        if (admin == msg.sender) {\n            access = true;\n        }\n        return access;\n    }\n\n    function addHospitalAccount(address _user) external {\n        require(admin == msg.sender, \"You don't have access\");\n        uint256 j = HospitalAccount.length;\n        bool exist = false;\n        while (j > 0) {\n            if (HospitalAccount[j - 1] == _user) {\n                exist = true;\n                break;\n            } else {\n                j--;\n            }\n        }\n        require(!exist, \"This Account is Added\");\n        HospitalAccount.push(_user);\n    }\n\n    //\n    function displayHospitalAccountLength() external view returns (uint256) {\n        return HospitalAccount.length;\n    }\n\n    function displayHospitalAccount(uint256 _id)\n        external\n        view\n        returns (address)\n    {\n        require(_id < HospitalAccount.length, \"Index out of bounds\");\n        return HospitalAccount[_id];\n    }\n\n    //\n\n    function addDoctorAccount(address _user) external {\n        bool ExistHospitalAccount = false;\n        for (uint256 j = 0; j < HospitalAccount.length; j++) {\n            if (HospitalAccount[j] == msg.sender) {\n                ExistHospitalAccount = true;\n                break;\n            }\n        }\n        require(\n            ExistHospitalAccount,\n            \"You dont have Access Because Hospital Account Dont Exist\"\n        );\n        bool ExistDoctorAccount = false;\n        for (uint256 j = 0; j < DoctorAccount[msg.sender].length; j++) {\n            if (DoctorAccount[msg.sender][j] == _user) {\n                ExistDoctorAccount = true;\n                break;\n            }\n        }\n        require(\n            !ExistDoctorAccount,\n            \"You dont have Access to add Doctor Because exist\"\n        );\n        DoctorAccount[msg.sender].push(_user);\n        DoctorsAddress.push(_user);\n    }\n\n    function displayDoctorAccountLength() external view returns (uint256) {\n        return DoctorAccount[msg.sender].length;\n    }\n\n    function displayDoctorAccount(uint256 _id) external view returns (address) {\n        require(_id < DoctorAccount[msg.sender].length, \"Index out of bounds\");\n        return DoctorAccount[msg.sender][_id];\n    }\n\n    //\n\n    function createEhr(address _patient, string memory _data) external {\n        //AccesDoctor[patient]=[doctor]\n        bool acce = false;\n        for (uint256 i = 0; i < AccesDoctor[_patient].length; i++) {\n            if (AccesDoctor[_patient][i] == msg.sender) {\n                acce = true;\n            }\n        }\n        for (uint256 i = 0; i < AccesHospital[_patient].length; i++) {\n            if (AccesHospital[_patient][i] == msg.sender) {\n                acce = true;\n            }\n        }\n        require(acce == true, \"you dont have acces\");\n\n        for (uint256 j = 0; j < DoctorsAddress.length; j++) {\n            // DoctorAccount\n            if (DoctorsAddress[j] == msg.sender) {\n                // Create a new EHR instance\n\n                // Push the new EHR to the patient's EHR list\n                Ehr[_patient].push(_data);\n            }\n        }\n    }\n\n    function concatenateStrings(string memory _a, string memory _b)\n        public\n        pure\n        returns (string memory)\n    {\n        bytes memory _ba = bytes(_a);\n        bytes memory _bb = bytes(_b);\n        string memory ab = new string(_ba.length + _bb.length);\n        bytes memory bab = bytes(ab);\n        uint256 k = 0;\n        for (uint256 i = 0; i < _ba.length; i++) bab[k++] = _ba[i];\n        for (uint256 j = 0; j < _bb.length; j++) bab[k++] = _bb[j];\n        return string(bab);\n    }\n\n    function ModifyEhr(\n        address _patient,\n        uint256 _id,\n        string memory _data\n    ) external {\n        bool acce = false;\n        for (uint256 i = 0; i < AccesDoctor[_patient].length; i++) {\n            if (AccesDoctor[_patient][i] == msg.sender) {\n                acce = true;\n            }\n        }\n        for (uint256 i = 0; i < AccesHospital[_patient].length; i++) {\n            if (AccesHospital[_patient][i] == msg.sender) {\n                acce = true;\n            }\n        }\n        require(acce == true, \"you dont have acces\");\n\n        Ehr[_patient][_id] = _data;\n    }\n\n    function displayMedicalRecordsLength(address _patient)\n        external\n        view\n        returns (uint256)\n    {\n        return Ehr[_patient].length;\n    }\n\n    function displayMedicalRecords(address _patient, uint256 _id)\n        external\n        view\n        returns (string memory)\n    {\n        require(_id < Ehr[_patient].length, \"Index out of bounds\"); //???\n        return Ehr[_patient][_id];\n    }\n\n    //AccesDoctor\n    function accessDoctor(address _doctor) external {\n        bool access = false;\n        for (uint256 i = 0; i < AccesDoctor[msg.sender].length; i++) {\n            if (AccesDoctor[msg.sender][i] == _doctor) {\n                access = true;\n            }\n        }\n        if (access == false) {\n            AccesDoctor[msg.sender].push(_doctor);\n        }\n    }\n\n    function displayaccessDoctorLength() external view returns (uint256) {\n        return AccesDoctor[msg.sender].length;\n    }\n\n    function displayaccessDoctorLengthPatient(address _patient)\n        external\n        view\n        returns (uint256)\n    {\n        return AccesDoctor[_patient].length;\n    }\n\n    function getAccesDoctorAtIndex(address _patient, uint256 _index)\n        external\n        view\n        returns (address)\n    {\n        require(_index < AccesDoctor[_patient].length, \"Index out of bounds\");\n        return AccesDoctor[_patient][_index];\n    }\n\n    function accessHospital(address _hospital) external {\n        bool access = false;\n        for (uint256 i = 0; i < AccesHospital[msg.sender].length; i++) {\n            if (AccesDoctor[msg.sender][i] == _hospital) {\n                access = true;\n            }\n        }\n        if (access == false) {\n            AccesHospital[msg.sender].push(_hospital);\n        }\n    }\n\n    function displayaccessHospitalLength() external view returns (uint256) {\n        return AccesHospital[msg.sender].length;\n    }\n\n    function getAccesHospitalAtIndex(address _patient, uint256 _index)\n        external\n        view\n        returns (address)\n    {\n        require(_index < AccesHospital[_patient].length, \"Index out of bounds\");\n        return AccesHospital[_patient][_index];\n    }\n\n    //Add personal infos\n    function addPersonalInfos(string memory _data) external {\n        PersonalInfos[msg.sender].push(_data);\n    }\n\n    function displayPersonalInfos() external view returns (string memory) {\n        require(\n            PersonalInfos[msg.sender].length > 0,\n            \"No personal information found\"\n        );\n        return PersonalInfos[msg.sender][PersonalInfos[msg.sender].length - 1];\n    }\n\n    function displayPersonalInfosLength(address _user)\n        external\n        view\n        returns (uint256)\n    {\n        return PersonalInfos[_user].length;\n    }\n}\n",
  "sourcePath": "/home/larbi/Documents/Projects/besu/trufle2/contracts/MedicalRecords.sol",
  "compiler": {
    "name": "solc",
    "version": "0.8.0+commit.c7dfd78e.Emscripten.clang"
  },
  "schemaVersion": "3.4.16",
  "updatedAt": "2024-04-23T03:58:26.816Z",
  "networkType": "ethereum",
  "devdoc": {
    "kind": "dev",
    "methods": {},
    "version": 1
  },
  "userdoc": {
    "kind": "user",
    "methods": {},
    "version": 1
  }
}